:100000000C946D190C9497190C9497190C949719DA
:100010000C9497190C9497190C9497190C949719A0
:100020000C9497190C9497190C9497190C94971990
:100030000C9497190C946F370C9497190C9497198A
:100040000C9497190C94A18B0C94D5A10C9497192E
:100050000C940C370C9497190C9497190C949719CD
:100060000C9497190C9497190C9497190C94971950
:100070000C9497190C9497190C9497190C94971940
:100080000C94103F0C9497190C94971933613661B6
:1000900029612D614D614D613A613E614461486164
:1000A00044A149A14EA158A186A186A162A16AA13D
:1000B00072A17CA133D70CD643D66FD743D643D693
:1000C00043D643D643D643D643D643D643D643D668
:1000D00043D643D643D643D643D643D643D643D658
:1000E00043D643D643D643D643D643D643D643D648
:1000F00069D743D643D643D643D643D643D643D611
:1001000043D642D743D643D643D643D643D643D627
:1001100043D643D643D643D686D740D64E414E49E2
:100120004E495459494E46CDCCCC3D0AD7233C17B5
:10013000B7D13877CC2B329595E6241FB14F0A0002
:100140000020410000C84200401C4620BCBE4CCAF2
:100150001B0E5AAEC59D7400407A10F35A00A0726F
:100160004E18090010A5D4E80000E87648170000F2
:10017000E40B54020000CA9A3B000000E1F50500C0
:100180000080969800000040420F000000A0860109
:10019000000000102700000000E8030000000064D9
:1001A00000000000000A0000000000010000000044
:1001B000002C76D888DC674F0823DFC1DFAE59E119
:1001C000B1B796E5E3E453C63AE651997696E8E688
:1001D000C28426EB898C9B62ED407C6FFCEFBC9C5B
:1001E0009F40F2BAA56FA5F490055A2AF75C936B6D
:1001F0006CF9676DC11BFCE0E40D47FEF520E6B528
:1002000000D0ED902E0300943577050080841E0801
:100210000000204E0A000000C80C333333330F981F
:100220006E12831141EF8D2114893BE65516CFFEE6
:10023000E6DB18D1844B381BF77C1D901DA4BBE472
:1002400024203284725E228100C9F124ECA1E53DB4
:1002500027434F4D4D554E49434154494F4E00445D
:10026000525952554E004552524F525300494E4634
:100270004F004543484F00536C6565702E2E2E008D
:10028000473238205A20466F7262696464656E0A8C
:1002900000473238205A20466F7262696464656E86
:1002A00000205A3A200020593A2000426564205824
:1002B0003A20004D65736820706F696E7420636129
:1002C0006E6E6F74206265207265736F6C76656404
:1002D0000A00456E6465722D332050726F2072657E
:1002E0006164792E00526573756D696E6720707256
:1002F000696E7400436C69636B20746F2072657360
:10030000756D652E2E2E004E6F206D6F76652E005A
:10031000456E642066696C65206C6973740A0042DE
:100320006567696E2066696C65206C6973740A0084
:100330005446207072696E74696E672062797465C4
:1003400020004E6F74205446207072696E74696E7E
:10035000670A002569730025696D202569730025EA
:1003600069682025696D2025697300256964202549
:1003700069682025696D2025697300256979202524
:100380006964202569682025696D202569730050FE
:1003900072696E742074696D653A200050726F74D2
:1003A00065637465642050696E0A004578747275DF
:1003B0006465722025730072026D0266025F02514D
:1003C000026F66660044454255473A004B494C4C23
:1003D00045442E20004D3131332053006F6B0045D2
:1003E0006E6465722D332050726F204F66662E004A
:1003F0004361703A454D455247454E43595F504120
:10040000525345523A300A004361703A43415345D2
:100410005F4C494748545F4252494748544E455300
:10042000533A300A004361703A544F47474C455F96
:100430004C49474854533A300A004361703A534F8D
:100440004654574152455F504F5745523A300A0083
:100450004361703A4C4556454C494E475F444154C0
:10046000413A310A004361703A5A5F50524F424557
:100470003A310A004361703A4155544F4C45564554
:100480004C3A310A004361703A5052494E545F4A27
:100490004F423A310A004361703A50524F47524539
:1004A00053533A300A004361703A4155544F524514
:1004B000504F52545F54454D503A310A00436170D9
:1004C0003A454550524F4D3A310A004649524D5730
:1004D0004152455F4E414D453A4D61726C696E2007
:1004E000437265616C69747920334420534F5552CF
:1004F00043455F434F44455F55524C3A68747470AE
:10050000733A2F2F6769746875622E636F6D2F4D74
:1005100061726C696E4669726D776172652F4D61AB
:10052000726C696E2050524F544F434F4C5F56458A
:100530005253494F4E3A312E30204D414348494E97
:10054000455F545950453A456E6465722D332050CD
:10055000726F2045585452554445525F434F554E93
:10056000543A3120555549443A63656465326132E5
:10057000662D343161322D343734382D39623132C1
:100580002D6335356336326633363766660A002F9B
:100590002F20007A5F6D696E3A2000795F6D696E79
:1005A0003A2000785F6D696E3A20005265706F7274
:1005B00074696E6720656E6473746F702073746104
:1005C0007475730A004D31343520533C696E64658F
:1005D000783E206F7574206F662072616E676520AB
:1005E00028302D31290A0053657474696E672054D0
:1005F000726176656C20416363656C6572617469D4
:100600006F6E3A200053657474696E67205265748A
:100610007261637420416363656C65726174696FB4
:100620006E3A200053657474696E67205072696E6B
:100630007420416363656C65726174696F6E3A2002
:100640000053657474696E67205072696E7420611E
:100650006E642054726176656C20416363656C65DD
:10066000726174696F6E3A2000205A002059005858
:100670000020204D61783A2000205A00205900586F
:100680000020204D696E3A20004F6E20004F6666B4
:1006900000536F667420656E6473746F70733A20D4
:1006A0000000010F150E12FF16170E13FF03021A9A
:1006B00014FFFFFF0C04FFFFFF01000EFFFF0C19EA
:1006C0000DFF18FFFFFFFFFFFF206F7574206F669F
:1006D0002072616E67650A00536572766F20003A7A
:1006E000200020536572766F200020643A00206954
:1006F0003A0020703A0043290A0061626C65642068
:10070000286D696E2074656D702000436F6C6420E5
:1007100065787472756465732061726520004F6638
:10072000660A004661646520486569676874200050
:10073000426564204C6576656C696E672000466191
:10074000696C656420746F20656E61626C6520421F
:100750006564204C6576656C696E670A004D65734B
:100760006820706F696E742063616E6E6F742062B2
:1007700065207265736F6C7665640A004D343231A2
:1007800020696E636F727265637420706172616D4F
:10079000657465722075736167650A003A20007A96
:1007A0005F6D696E3A20202D3230207A5F6D61785E
:1007B0003A20203230005A204F666673657420005C
:1007C0004E6F2063617365206C696768740A00412D
:1007D00063746976652045787472756465723A2031
:1007E00000556E6B6E6F776E20636F6D6D616E641A
:1007F0003A2022004B494C4C45442E200053544F84
:10080000505045442E20005072696E7465722073FA
:10081000746F707065642064756520746F206572F4
:10082000726F72732E204669782074686520657235
:10083000726F7220616E6420757365204D3939398D
:1008400020746F20726573746172742E2028546551
:100850006D7065726174757265206973207265735D
:1008600065742E2053657420697420616674657206
:100870002072657374617274696E67290A004E6F25
:10088000204C696E65204E756D62657220776974C3
:100890006820636865636B73756D2C204C6173749D
:1008A000204C696E653A20004E6F20436865636B8B
:1008B00073756D2077697468206C696E65206E753C
:1008C0006D6265722C204C617374204C696E653AC0
:1008D0002000636865636B73756D206D69736D616E
:1008E0007463682C204C617374204C696E653A20E7
:1008F000004C696E65204E756D62657220697320CB
:100900006E6F74204C617374204C696E65204E7557
:100910006D6265722B312C204C617374204C696EB2
:10092000653A20004D313130004D3331004D3834BF
:1009300020582059205A2045005446207265616491
:10094000206572726F720A00446F6E652070726962
:100950006E74696E672066696C650A0020496E7660
:10096000616C6964206578747275646572200053E7
:10097000544F505045442E20005072696E74657279
:100980002073746F707065642064756520746F20C7
:100990006572726F72732E204669782074686520C4
:1009A0006572726F7220616E6420757365204D39B7
:1009B000393920746F20726573746172742E202827
:1009C00054656D706572617475726520697320720B
:1009D000657365742E205365742069742061667494
:1009E00065722072657374617274696E67290A009A
:1009F00053544F502063616C6C6564206265636181
:100A0000757365206F6620424C546F75636820656E
:100A100072726F72202D2072657374617274207708
:100A2000697468204D3939390A0024F4D43050C330
:100A30008E20C2A24017828B7011127A910D816CA8
:100A4000D90AA861E108C7586607615143061E4BE1
:100A50005D05C145A7041A411104093D9803713988
:100A600031034036DB0265339102D4305402802ECC
:100A70001D02632CEE01752AC501B028A0011027C4
:100A800081018F2564012B244B01E0223401AC212C
:100A90001F018D200D01801FFC00841EED00971D9D
:100AA000DF00B81CD200E61BC600201BBC00641A85
:100AB000B200B219A8000A19A0006A189900D1174B
:100AC000910040178B00B516840031167E00B315D7
:100AD00079003A157300C7146F0058146A00EE13BA
:100AE00066008813630025135E00C7125B006C125A
:100AF000570015125400C111510070114F002111FF
:100B00004B00D61049008D104700461044000210DB
:100B10004200C00F4000800F3E00420F3C00060F15
:100B20003B00CB0E3800930E37005C0E3500270ECD
:100B30003400F30D3200C10D3100900D3000600D16
:100B40002E00320D2D00050D2C00D90C2B00AE0C03
:100B50002900850C29005C0C2700350C27000E0CA1
:100B60002600E80B2400C40B2400A00B23007D0BFF
:100B700023005A0B2100390B2100180B2000F80A22
:100B80001F00D90A1E00BB0A1E009D0A1D00800A14
:100B90001D00630A1C00470A1B002C0A1B00110AD7
:100BA0001A00F7091A00DD091900C4091900AB0978
:100BB0001900920917007B091800630917004C09F6
:100BC000160036091600200916000A091500F50856
:100BD0001500E0081400CC081400B8081400A4089C
:100BE0001400900813007D0812006B0813005808C9
:100BF00012004608120034081100230811001208E0
:100C0000110001081100F0071000E0071000D007E4
:100C10001000C0071000B0070F00A10710009107D7
:100C20000E0083070F0074070F0065070E005707BB
:100C30000E0049070E003B070D002E070E0020078F
:100C40000D0013070D0006070D00F9060C00ED0658
:100C50000D00E0060C00D4060C00C8060C00BC0613
:100C60000C00B0060C00A4060B0099060C008D06C3
:100C70000B0082060B0077060B006C060B0061066A
:100C80000A0057060B004C060A0042060A00380606
:100C90000A002E060A0024060A001A060A00100698
:100CA000090007060A00FD050900F4050900EB0527
:100CB0000900E2050900D9050900D0050900C705AA
:100CC0000900BE050900B5050800AD050800A50529
:100CD00009009C050800940508008C05080084059F
:100CE00008007C050800740508006C050700650510
:100CF00008005D050700560508004E05070047057A
:100D000007004005080038050700310507002A05DF
:100D10000700230507001C050600160507000F0540
:100D200007000805060002050700FB040600F5049D
:100D30000700EE040600E8040600E2040700DB04F6
:100D40000600D5040600CF040600C9040600C3044B
:100D50000600BD040600B7040600B1040500AC049B
:100D60000600A6040600A00405009B0406009504E6
:100D70000500900406008A0405008504050080042F
:100D800006007A04050075040500700405006B0474
:100D9000050066040500610405005C0405005704B5
:100DA0000500520405004D040500480405004304F5
:100DB00005003E0404003A04050035040500300433
:100DC00004002C04050027040400230405001E046D
:100DD00004001A04040016040500110404000D04A4
:100DE0000400090405000404040000040400FC03DA
:100DF0000400F8030400F4030400F0030400EC030F
:100E00000400E8030400E4030400E0030400DC033E
:100E10000400D8030400D4030400D0030400CC036E
:100E20000400C8030300C503030024F404D9201BF5
:100E3000C40C5C0E9804C4095F0265077101F405D7
:100E4000F900FB04B30048048700C103690058039C
:100E5000550003034500BE023A00840231005302EC
:100E60002A002902250004022000E4011C00C80118
:100E70001900AF01170098011400840113007101DB
:100E800010006101100051010E0043010D003601F8
:100E90000B002B010B0020010B00150109000C01B8
:100EA000090003010800FB000800F3000800EB0044
:100EB0000700E4000600DE000600D8000600D200AD
:100EC0000600CC000500C7000500C2000500BD00FB
:100ED0000400B9000400B5000400B1000400AD0036
:100EE0000400A9000400A5000300A20003009F0065
:100EF00004009B000300980003009500020093008B
:100F00000300900003008D0002008B0003008800A6
:100F100002008600020084000300810002007F00BE
:100F200002007D0002007B000200790002007700D1
:100F300001007600020074000200720001007100DE
:100F400002006F0002006D0001006C0002006A00E8
:100F500001006900020067000100660001006500F1
:100F600001006400020062000100610001006000F5
:100F700001005F0002005D0001005C0001005B00F9
:100F800001005A00010059000100580001005700FB
:100F900001005600010055000100540001005300FB
:100FA00000005300010052000100510001005000F8
:100FB00001004F0001004E0000004E0001004D00F6
:100FC00001004C0001004B0000004B0001004A00F2
:100FD00001004900010048000000480001004700EE
:100FE00001004600000046000100450000004500E9
:100FF00001004400010043000000430001004200E2
:1010000000004200010041000000410001004000DA
:1010100001003F0000003F0001003E0000003E00D4
:1010200001003D0000003D0001003C0000003C00CC
:1010300000003C0001003B0000003B0001003A00C2
:1010400000003A00010039000000390001003800BA
:1010500000003800000038000100370000003700B1
:1010600001003600000036000000360001003500A7
:10107000000035000000350001003400000034009D
:101080000000340001003300000033000000330092
:101090000100320000003200000032000100310087
:1010A000000031000000310001003000000030007D
:1010B0000000300001002F0000002F0000002F0072
:1010C00000002F0001002E0000002E0000002E0066
:1010D00001002D0000002D0000002D0000002D005B
:1010E00001002C0000002C0000002C0000002C004F
:1010F00001002B0000002B0000002B0000002B0043
:1011000001002A0000002A0000002A0000002A0036
:10111000010029000000290000002900000029002A
:10112000000029000100280000002800000028001D
:101130000000280000002800010027000000270010
:101140000000270000002700000027000100260003
:1011500000002600000026000000260000002600F7
:1011600001002500000025000000250000002500EA
:1011700000002500000025000100240000002400DC
:1011800000002400000024000000240001002300CF
:1011900000002300000023000000230000002300C3
:1011A00000002300000023000100220000002200B4
:1011B00000002200000022000000220000002200A7
:1011C000010021000000210000002100000021009A
:1011D000000021000000210000002100010020008B
:1011E000000020000000200000002000000020007F
:1011F00000002000000020000000200001001F006F
:1012000000001F0000001F0000001F0000001F0062
:1012100000001F0000001F0001001E0000001E0053
:1012200000001E0000001E0000004D383420582031
:1012300059205A20450057726974696E6720746F8F
:101240002066696C653A20006F70656E2066616982
:101250006C65642C2046696C653A20006F70656E81
:10126000206661696C65642C2046696C653A2000D3
:1012700046696C652073656C65637465640A00205B
:1012800053697A653A200046696C65206F70656E17
:1012900065643A20006F70656E206661696C6564F4
:1012A0002C2046696C653A20002066696C653A20FE
:1012B000004E6F7720002220706F73002220706133
:1012C00072656E743A2200535542524F5554494E3E
:1012D000452043414C4C207461726765743A22008A
:1012E0004B494C4C45442E2000747279696E67203E
:1012F000746F2063616C6C207375622D67636F641B
:10130000652066696C6573207769746820746F6FF7
:10131000206D616E79206C6576656C732E204D4171
:1013200058206C6576656C2069733A0043616E6E77
:101330006F74206F70656E2073756264697220002F
:1013400054462063617264206F6B0A006F70656E93
:10135000526F6F74206661696C65640A00766F6C09
:10136000756D652E696E6974206661696C65640AC5
:10137000004572726F723A00544620696E6974209B
:101380006661696C0A006175746F25692E67004D8E
:101390003234004D32332025730056652D6A657254
:1013A0006B0056652D6A65726B0056652D6A657215
:1013B0006B00567A2D6A65726B00567A2D6A6572DB
:1013C0006B0056792D6A65726B0056792D6A6572CD
:1013D0006B0056792D6A65726B0056782D6A6572BE
:1013E0006B0056782D6A65726B0056782D6A6572AF
:1013F0006B004D6F74696F6E004573746570732F69
:101400006D6D004573746570732F6D6D005A737444
:101410006570732F6D6D005A73746570732F6D6DE9
:10142000005973746570732F6D6D00597374657016
:10143000732F6D6D005873746570732F6D6D005848
:1014400073746570732F6D6D004D6F74696F6E00EE
:1014500053746570732F6D6D004A65726B00416344
:1014600063656C65726174696F6E0056656C6F635D
:10147000697479005A204F6666736574005A204F6C
:10148000666673657400436F6E74726F6C004669B4
:101490006C2E204469612E0046696C2E20446961DF
:1014A0002E004F6666004F6E20004520696E206D4D
:1014B0006D3300436F6E74726F6C0043616E6E6FBC
:1014C0007420656E746572207375626469723A2067
:1014D00000022E2E000152656672657368004D6130
:1014E000696E00473020463336303020583131376E
:1014F00020593131370042696C696E656172204C48
:101500006576656C696E6720477269643A0A0020E7
:10151000706F736974696F6E206F7574206F6620C9
:1015200072616E67652E0A003F50726F626520001F
:10153000486F6D6520257325732573206669727366
:1015400074002066697273740A005A0059005800CA
:10155000486F6D65200052756E6E696E6720696E0A
:10156000204452592D52554E206D6F64650A004734
:101570003239204175746F20426564204C65766570
:101580006C696E670A0028422961636B002846294E
:10159000726F6E74002852296967687400284C299C
:1015A000656674003F2856296572626F7365206C0A
:1015B0006576656C20697320696D706C61757369FF
:1015C000626C652028302D34292E0A004261642087
:1015D0005A2076616C75650A004E6F2062696C69ED
:1015E0006E65617220677269640A0046696C6520E5
:1015F00064656C657465643A0044656C6574696F14
:101600006E206661696C65642C2046696C653A20C1
:10161000006F70656E206661696C65642C20466998
:101620006C653A200000060900FE00000000000181
:10163000090008FE000005080806000040F0C88800
:1016400088987810050808060000C0F888888888FF
:1016500088F80505050600012030F8302005080847
:101660000600002070F820202020E005090906006F
:10167000FF2070A8A8B8888870200509090600FF17
:10168000E080C0B0A8283028280509090600FFF826
:10169000A88888888888A8F8050A0A0600FE2050CD
:1016A00050505088A8A8887003030306000340A088
:1016B0004025753A2530327500253032753A25308F
:1016C00032750025756420253032753A2530327523
:1016D000005A0059005800092000000000000000D6
:1016E000000000000000003FFFF0F8020000600072
:1016F0000000000000000038007048020000900068
:101700000000000000000030FC30438E66801000B6
:101710000000000000000020FC107252933E6000A8
:10172000000000000000002078104252F20010007B
:10173000000000000000002030104A52820090009B
:10174000000000000000002C00D0FA4E7700601F5F
:10175000E00000104100002E31D000000000003FEA
:10176000F00000082080002F7BD000000000003F28
:10177000F00000082080002F7BD0007C0000003F9C
:10178000F00000104100002E31D000220000001FA8
:10179000E00000208200002C00D000220000001F8A
:1017A000E000004104000020301000226C70003F77
:1017B000F0000041040000207810003C3088003F19
:1017C000F000002082000020FC1000202088003F54
:1017D000F000001041000030FC3000202088000F95
:1017E000C0000000000000380070002020880007C2
:1017F000800000FFFFC0003FFFF000707870000322
:10180000000000FFFFC0000000000000000000001A
:10181000000000000000003FFFF0F8020000600040
:101820000000000000000038007048020000900036
:1018300000000000000000338730438E66801000F7
:10184000000000000000002787907252933E600065
:10185000000000000000002F87D04252F20010006C
:10186000000000000000002F87D04A528200900044
:10187000000000000000002F03D0FA4E7700601F28
:10188000E000000820800020301000000000003F31
:10189000F000000410400020781000000000003F1D
:1018A000F0000004104000207810007C0000003F91
:1018B000F000000820800020301000220000001FEF
:1018C000E00000104100002F03D000220000001FA4
:1018D000E00000208200002F87D000226C70003FC3
:1018E000F00000208200002F87D0003C3088003FAD
:1018F000F000001041000027879000202088003F62
:10190000F000000820800033873000202088000F7E
:10191000C000000000000038007000202088000790
:10192000800000FFFFC0003FFFF0007078700003F0
:10193000000000FFFFC000000000000021002400A4
:1019400027002A0000002200250028002B000000AC
:1019500020002300260029000202020202020202E5
:10196000040404040404040403030303030303033F
:101970000101010101010101010204081020408060
:101980000102040810204080010204081020408059
:101990008040201008040201000000010200090A32
:1019A0000000000004030807000000000000000021
:1019B00000000000000000002020506C616E6E6589
:1019C0007242756666657242797465733A200020CA
:1019D00046726565204D656D6F72793A2000436FE0
:1019E0006D70696C65643A204A756E20203420322F
:1019F0003031390A00207C20417574686F723A20BA
:101A000028456E6465722D332050726F20424C540D
:101A10006F756368290A00323031392D30362D3028
:101A20003400204C61737420557064617465643AAD
:101A30002000312E312E36424C5F56332E310A00B3
:101A40004D61726C696E0020536F667477617265C8
:101A50002052657365740A00205761746368646F6F
:101A6000672052657365740A002042726F776E209A
:101A70006F75742052657365740A0020457874652B
:101A8000726E616C2052657365740A00506F7765E1
:101A90007255700A0073746172740A006572726F15
:101AA000722077726974696E6720746F2066696C42
:101AB000650A00456E6473746F707320256320257A
:101AC0006320256320256300205A3A0020593A00FC
:101AD00020583A00656E6473746F7073206869747F
:101AE0003A2000446F6E6520736176696E672066E8
:101AF000696C652E0A004D323900F4010000F401D2
:101B0000000064000000E8030000000096430000AD
:101B100096430000A0400000C8410000A042000021
:101B2000A0420000C8430000BA4220204D383531A1
:101B3000205A005A2D50726F6265204F6666736599
:101B40007420286D6D293A0A0020440020490020A5
:101B5000204D333031205000504944207365747457
:101B6000696E67733A0A0020460020420020480050
:101B700020204D3134352053004D61746572696108
:101B80006C2068656174757020706172616D657438
:101B90006572733A0A00205A0020204D34323020FA
:101BA00053004175746F20426564204C6576656C06
:101BB000696E673A0A00204500205A00205900202B
:101BC000580020420020540020204D323035205350
:101BD00000416476616E6365643A20533C6D696EC2
:101BE0005F66656564726174653E20543C6D696E24
:101BF0005F74726176656C5F666565647261746559
:101C00003E20423C6D696E5F7365676D656E745F03
:101C100074696D655F6D733E20583C6D61785F78C7
:101C2000795F6A65726B3E205A3C6D61785F7A5FBE
:101C30006A65726B3E20453C6D61785F655F6A65E1
:101C4000726B3E0A0020540020520020204D32309A
:101C500034205000416363656C65726174696F6E16
:101C60002028756E6974732F7332293A20503C70A6
:101C700072696E745F616363656C3E20523C72658D
:101C800074726163745F616363656C3E20543C747D
:101C9000726176656C5F616363656C3E0A00204526
:101CA00000205A0020590020204D323031205800A9
:101CB0004D6178696D756D20416363656C65726116
:101CC00074696F6E2028756E6974732F7332293AA8
:101CD0000A00204500205A0020590020204D3230B3
:101CE000332058004D6178696D756D2066656564B7
:101CF00072617465732028756E6974732F73293A45
:101D00000A00204500205A0020590020204D393279
:101D100020580053746570732070657220756E6969
:101D2000743A0A0020204D3230302044300A00201E
:101D3000204D3230302044002044697361626C656C
:101D4000640A0046696C616D656E74207365747415
:101D5000696E67733A0020204D3134392043203BAF
:101D600020556E69747320696E2043656C736975C4
:101D7000730A002020473231202020203B20556E5E
:101D800069747320696E206D6D0A00202F00204257
:101D9000403A0020403A0048656174696E672064EB
:101DA0006F6E652E0020573A004578747275646531
:101DB000722025730042656420646F6E652E0020DA
:101DC000573A004265642048656174696E672E0069
:101DD000205A3A0020593A0020436F756E742058FB
:101DE0003A0020453A00205A3A0020593A00583A21
:101DF0000023646566696E65202044454641554C64
:101E0000545F4B64200023646566696E652020443E
:101E1000454641554C545F4B692000236465666913
:101E20006E65202044454641554C545F4B70200060
:101E3000504944204175746F74756E652066696EF3
:101E40006973686564212050757420746865206C1E
:101E5000617374204B702C204B6920616E64204BA1
:101E60006420636F6E7374616E74732066726F6D3D
:101E70002062656C6F7720696E746F20436F6E66A9
:101E8000696775726174696F6E2E680A0050494403
:101E9000204175746F74756E65206661696C656448
:101EA000212074696D656F75740A005049442041A2
:101EB00075746F74756E65206661696C6564212048
:101EC00054656D706572617475726520746F6F20F2
:101ED000686967680A00204B643A2000204B693A21
:101EE0002000204B703A20000A20436C6173736914
:101EF0006320504944200A002054753A2000204BAA
:101F0000753A2000206D61783A2000206D696E3AA4
:101F1000200020643A200020626961733A2000208A
:101F2000636F6C6420657874727573696F6E20706E
:101F3000726576656E7465640A004D6F766520582B
:101F4000004D6F76652059004D6F7665205A00452B
:101F500078747275646572004D6F766520302E312D
:101F60006D6D004D6F766520316D6D004D6F76653E
:101F70002031306D6D004D6F76652061786973009A
:101F80004578747275646572004D6F7665205A00ED
:101F90004D6F76652059004D6F7665205800457865
:101FA000747275646572004D6F7665205A004D6FCE
:101FB00076652059004D6F76652058005072657027
:101FC000617265004C6F61642073657474696E673B
:101FD0007300496E697469616C697A652045455082
:101FE000524F4D0053746F72652073657474696E3F
:101FF000677300424C546F7563680046696C616D8D
:10200000656E74004D6F74696F6E0054656D706518
:10201000726174757265004D61696E005072656819
:102020006561742041425320636F6E660050726593
:102030006865617420504C4120636F6E6600466194
:102040006E2073706565640046616E20737065650F
:10205000640046616E2073706565640042656400CB
:1020600042656400426564004E6F7A7A6C65004E8A
:102070006F7A7A6C65004E6F7A7A6C6500436F6E8A
:1020800074726F6C0053746F726520736574746939
:102090006E677300426564004265640042656400D7
:1020A0004E6F7A7A6C65004E6F7A7A6C65004E6F6F
:1020B0007A7A6C650046616E2073706565640046CF
:1020C000616E2073706565640046616E2073706593
:1020D00065640054656D7065726174757265006247
:1020E00065640A002C2073797374656D2073746FB6
:1020F0007070656421204865617465725F49443A77
:10210000200048656174696E67206661696C65646A
:102110000048656174696E67206661696C6564007A
:1021200048656174696E67206661696C6564004822
:10213000656174696E67206661696C656400700131
:102140002C0190012701B0012201C0011D01F00105
:1021500018011002130130020E0160020901900201
:102160000401C002FF000003FA004003F5008003F1
:10217000F000D003EB002004E6007004E100E0046E
:10218000DC004005D700C005D2004006CD00D006D7
:10219000C8008007C3003008BE00F008B900C009BD
:1021A000B400B00AAF00B00BAA00D00CA500000E1E
:1021B000A000500F9B00C010960050129100001418
:1021C0008C00C0158700B0178200B0197D00D01BAD
:1021D0007800001E730040206E0090226900F024F9
:1021E000640040275F0090295A00E02B5500102E14
:1021F000500020304B0010324600E0334100903553
:102200003C001037370070383200A0392D00B03A4A
:102210002800A03B2300603C1E00103D1900903DAB
:102220001400103E0F00703E0A00C03E0500003F43
:102230000000403FFBFF803FF6FFC03FF1FF4572CB
:10224000723A204D494E54454D5020424544004578
:1022500072723A204D494E54454D50004D494E54EE
:10226000454D5020747269676765726564004572F8
:10227000723A204D415854454D5020424544004546
:1022800072723A204D415854454D50004D415854BA
:10229000454D502074726967676572656400506CC3
:1022A00065617365207265736574005052494E54C0
:1022B00045522048414C544544005072696E746543
:1022C000722068616C7465642E206B696C6C2829BF
:1022D0002063616C6C6564210A0062696E004D3197
:1022E000313720494E56414C494420444154412EF7
:1022F000004D313137205072696E74696E672E2E31
:102300002E004730205A257300473238205830209D
:102310005930004730205A257300473932205A255A
:1023200073204525730062696E0000000000000004
:102330000000000000000000484200004842000089
:102340008040000000005761726E696E673A204855
:102350006F6D696E672042756D7020446976697390
:102360006F72203C20310A000202040000A04000ED
:1023700000A0400000004000006B4300006B4300E1
:10238000007A43FFFFFF7C3C3E5E2B3D3F2F5B5DB1
:102390003B2C2A225C0050726F62696E6720666176
:1023A000696C65640A0050726F62696E67206661CD
:1023B000696C656400205A3A200020593A20004296
:1023C000656420583A20002E0A0046696C65286230
:1023D000696E292064656C657465640044656C658C
:1023E00074696F6E2862696E29206661696C656424
:1023F0000000060900FE070192032120FFFF08FFED
:1024000007FF0000000600000107070602008080A9
:102410008080800080030202060105A0A005070756
:102420000600005050F850F850500507070600000D
:102430002078A07028F020050707060000C0C8100B
:10244000204098180507070600006090A040A8905B
:1024500068020303060104C0408003070706010069
:102460002040808080402003070706010080402034
:102470002020408005050506000120A870A8200541
:1024800005050600012020F820200203030602FFB4
:10249000C04080050101060003F8020202060200A6
:1024A000C0C005050506000108102040800507078B
:1024B0000600007088888888887003070706010076
:1024C00040C040404040E005070706000070880813
:1024D000708080F8050707060000F8102010080833
:1024E000F005070706000010305090F8101005079F
:1024F00007060000F880F008088870050707060046
:1025000000708080F0888870050707060000F808D2
:10251000102020202005070706000070888870889A
:102520008870050707060000708888780808700220
:102530000505060200C0C000C0C00206060602FF74
:10254000C0C000C040800407070600001020408083
:10255000402010050303060002F800F804070706F0
:102560000100804020102040800507070600007011
:1025700088081020002005070706000070880868FA
:10258000A8A870050707060000708888F888888862
:10259000050707060000F08888F08888F00507071F
:1025A000060000708880808088700507070600009C
:1025B000F08888888888F0050707060000F8808082
:1025C000F08080F8050707060000F88080F0808022
:1025D00080050707060000708880B88888700507A6
:1025E00007060000888888F888888801070706029F
:1025F00000808080808080800507070600003810FA
:1026000010101090600507070600008890A0C0A079
:102610009088050707060000808080808080F8058C
:10262000070706000088D8A8888888880507070655
:1026300000008888C8A898888805070706000070E9
:10264000888888888870050707060000F08888F069
:1026500080808005070706000070888888A8906839
:10266000050707060000F08888F0A0908805070796
:10267000060000788080700808F005070706000053
:10268000F8202020202020050707060000888888E1
:102690008888887005070706000088888888885021
:1026A000200507070600008888888888A850050745
:1026B0000706000088885020508888050707060014
:1026C0000088888850202020050707060000F808A9
:1026D00010204080F8030707060100E0808080801A
:1026E00080E005050506000180402010080307076B
:1026F000060100E02020202020E00503030600045E
:10270000205088050101060000F8020202060205B9
:1027100080400505050600007008788878050707E1
:102720000600008080B0C88888F005050506000016
:102730007080808870050707060000080868988880
:1027400088780505050600007088F8807005070781
:102750000600003048E0404040400506060600FF05
:102760007088887808700507070600008080B0C868
:1027700088888801070706020080008080808080AA
:102780000308080601FF200020202020A0400407A5
:1027900007060000808090A0C0A0900307070601F4
:1027A00000C04040404040E0050505060000D0A8BC
:1027B000A8A8A8050505060000B0C88888880505F2
:1027C0000506000070888888700506060600FFF080
:1027D0008888F080800506060600FF7888887808DB
:1027E00008050505060000B0C880808005050506BF
:1027F000000070807008F00407070600004040E009
:102800004040403005050506000088888898680526
:10281000050506000088888850200505050600008B
:102820008888A8A850050505060000885020508813
:102830000506060600FF88888878087005050506E5
:102840000000F8102040F803070706010020404070
:102850008040402001070706020080808080808041
:1028600080030707060100804040204040800502A9
:10287000020600026890000000060000000000064A
:10288000000000000006000000000006000000003C
:102890000006000000000006000000000006000026
:1028A0000000000600000000000600000000000616
:1028B000000000000006000000000006000000000C
:1028C00000060000000000060000000000060000F6
:1028D00000000006000000000006000000000006E6
:1028E00000000000000600000000000600000000DC
:1028F00000060000000000060000000000060000C6
:1029000000000006000000000006000000000006B5
:1029100000000000000600000000000600000000AB
:102920000006000000000006000000000006000095
:102930000000000600000000000600000000000685
:10294000000001070706020080008080808080056B
:1029500007070600002070A8A0A87020050707063A
:102960000000304040E04050A80505050600008802
:1029700070507088050707060000885020F820F87E
:102980002001070706020080808000808080050803
:1029900008060000304820505020906003010106D6
:1029A0000107A0050707060000F888B8B8B888F83E
:1029B000050707060001700878887800F805050506
:1029C0000600012850A05028050303060001F8085E
:1029D000080202020602064080050707060000F80A
:1029E00088A88898A8F8050101060006F8040404E0
:1029F000060003609090600507070600002020F89D
:102A0000202000F804050506000360902040F00334
:102A10000505060003E020E020E0020202060206AF
:102A200040800508080600FF8888888898E880802C
:102A3000050707060000789898781818180202020F
:102A4000060202C0C00202020602FF408003050522
:102A500006000340C04040E00507070600017088FB
:102A600088887000F8050505060001A0502850A0D0
:102A70000507070600008890A858B808080507074A
:102A80000600008890B8489820380508080600001D
:102A9000C040C048D83808080507070600002000D5
:102AA00020408088700508080600004020007088DB
:102AB000F888880508080600001020007088F8884B
:102AC000880508080600002050007088F8888805EE
:102AD00008080600006890007088F88888050808D3
:102AE0000600005000708888F888880508080600ED
:102AF000002050207088F8888805070706000038F5
:102B000060A0B8E0A0B80508080600FF70888080C3
:102B100088702060050808060000402000F880F05A
:102B200080F8050808060000081000F880F080F81A
:102B3000050808060000205000F880F080F805071E
:102B4000070600005000F880F080F803080806012E
:102B500000804000E0404040E003080806010020FB
:102B60004000E0404040E003080806010040A000AB
:102B7000E0404040E0030707060100A000E04040BD
:102B800040E0050707060000704848E8484870051F
:102B9000080806000068900088C8A89888050808FA
:102BA00006000040207088888888700508080600A4
:102BB00000102070888888887005080806000020AA
:102BC000500070888888700508080600006890002A
:102BD0007088888870050808060000500070888892
:102BE0008888700505050600018850205088050872
:102BF000080600FF1070A8A8A8A8704005080806DD
:102C00000000402088888888887005080806000031
:102C100010208888888888700508080600002050E1
:102C20000088888888700508080600005000888899
:102C30008888887005080806000010208850202029
:102C400020200509090600FFC04070484870404038
:102C5000E00408080601FF609090A09090E08005D5
:102C600008080600004020007008788878050808E9
:102C70000600001020007008788878050808060013
:102C80000020500070087888780508080600006861
:102C900090007008788878050707060000500070DB
:102CA0000878887805080806000020502070087809
:102CB0008878050606060000D02878A0A8500506EA
:102CC000060600FF70808870206005080806000076
:102CD0004020007088F88070050808060000102069
:102CE000007088F880700508080600002050007009
:102CF00088F8807005070706000050007088F8808B
:102D00007003080806010080400040C04040E00316
:102D1000080806010020400040C04040E0030808C9
:102D200006010040A00040C04040E0030707060144
:102D300000A00040C04040E0050707060000A0409A
:102D4000A010788870050808060000689000B0C8D8
:102D50008888880508080600004020007088888858
:102D6000700508080600001020007088888870052B
:102D70000808060000205000708888887005080840
:102D800006000068900070888888700507070600B4
:102D90000050007088888870050505060001200035
:102DA000F800200507070600FF1070A8A8A87040CB
:102DB00005080806000040200088888898680508F3
:102DC0000806000010200088888898680508080612
:102DD00000002050008888889868050707060000D2
:102DE000500088888898680509090600FF102000AF
:102DF000888888F808700407070601FFC040605003
:102E00006040E00508080600FF50008888887808C0
:102E100070526573656E643A20006F6B0020636FBB
:102E20006C6420657874727573696F6E207072655A
:102E300076656E7465640A00627573793A20706114
:102E40007573656420666F7220696E7075740A0010
:102E5000627573793A2070617573656420666F726C
:102E600020757365720A00627573793A2070726F0B
:102E700063657373696E670A004B494C4C45442E79
:102E800020004B494C4C2063617573656420627966
:102E900020746F6F206D75636820696E616374695B
:102EA00076652074696D65202D2063757272656E7C
:102EB0007420636F6D6D616E643A20005072696EAC
:102EC0007420706175736564004730204633363076
:102ED00030205830205930000047393220452573C2
:102EE000004730205A2573004D3130392053256971
:102EF000004D31343020532569004D313036205398
:102F0000323535004D31303920532569004D313986
:102F10003020532569005072696E742061626F72AF
:102F20007465640053746F70207072696E7400521F
:102F30006573756D65207072696E7400506F77658A
:102F4000722D4C6F7373205265636F7665727920B2
:102F50003F0053746F7720424C546F756368004D87
:102F600032383020503020533930004465706C6F57
:102F70007920424C546F756368004D3238302050D0
:102F80003020533130004D61696E004E6F20544641
:102F90002063617264004368616E67652054462057
:102FA00063617264004D3231005072696E74206644
:102FB000726F6D2054460053746F70207072696E8A
:102FC0007400526573756D65207072696E74004D82
:102FD0003231005061757365207072696E740053F0
:102FE000746F70207072696E7400526573756D65D0
:102FF000207072696E7400496E69742E20544620E8
:1030000063617264005061757365207072696E74DB
:1030100000436F6E74726F6C005072657061726500
:103020000054756E6500496E666F20736372656546
:103030006E00466C6F7700466C6F7700466C6F775A
:103040000046616E2073706565640046616E207392
:10305000706565640046616E20737065656400424A
:1030600065640042656400426564004E6F7A7A6C64
:1030700065004E6F7A7A6C65004E6F7A7A6C6500E7
:1030800053706565640053706565640053706565D1
:1030900064004D61696E005072656865617420500E
:1030A0004C4120426564005072656865617420502F
:1030B0004C4120456E640050726568656174205013
:1030C0004C410050726570617265005072656865B0
:1030D0006174204142532042656400507265686506
:1030E00061742041425320456E64005072656865EA
:1030F00061742041425300507265706172650047EF
:103100003238005072656865617420504C4100434C
:103110006F6F6C646F776E005072656865617420C4
:103120004142530044697361626C65207374657039
:1031300070657273004D383400426564204C6576CA
:10314000656C696E67004732380A4732390041754D
:10315000746F20686F6D65004D6F766520617869CA
:1031600073004D61696E00656E7175657565696E98
:10317000672022006563686F3A002E0A006F706551
:103180006E206661696C65642C2046696C653A2026
:103190000057726974696E6720746F2066696C6588
:1031A0003A2000544845524D414C2052554E41570B
:1031B000415900546865726D616C2052756E61777B
:1031C0006179004572726F722077726974696E67F7
:1031D00020746F20454550524F4D210A00565472BD
:1031E0006176206D696E005654726176206D696E4D
:1031F000005654726176206D696E00566D696E00DE
:10320000566D696E00566D696E00566D6178204589
:1032100000566D6178204500566D61782045005656
:103220006D6178205A00566D6178205A00566D61A4
:1032300078205A00566D6178205900566D617820CB
:103240005900566D6178205900566D6178205800FC
:10325000566D6178205800566D61782058004D6F8A
:1032600074696F6E00416D6178204500416D617831
:10327000204500416D6178205A00416D6178205AE7
:1032800000416D6178205900416D617820590041FD
:103290006D6178205800416D6178205800412D748F
:1032A000726176656C00412D74726176656C0041C7
:1032B0002D7265747261637400412D726574726160
:1032C000637400416363656C00416363656C004D2A
:1032D0006F74696F6E00CEE806E411241FBECFEF55
:1032E000D0E4DEBFCDBF13E0A0E0B1E0E2E5F0EF57
:1032F00001E00BBF02C007900D92A83CB107D9F7BF
:103300002AE1A8ECB3E001C01D92A230B207E1F7B8
:1033100019E1CCE6D9E104C02197FE010E9493F7A0
:10332000CB36D107C9F70E941DDF0C941CF80C9412
:1033300000002F923F924F925F926F927F928F92F6
:103340009F92AF92BF92CF92DF92EF92FF920F9334
:103350001F93CF93DF93CDB7DEB7A3970FB6F89443
:10336000DEBF0FBECDBF00918F0D20E6029F800112
:103370001124015F134F8091A50D80FF1AC0E4E76F
:10338000F1E384917F014FEFE41AF40A811102C046
:10339000780104C00E940F32F701F3CFD7018D915D
:1033A0007D01882319F00E940F32F8CF8AE00E9435
:1033B0000F3281E090E090931616809315161092CC
:1033C000E7031092E6038FE38093F1031092F0037A
:1033D0001092EF0384E0E2EEF3E0DF011D928A95A4
:1033E000E9F7F80180810F5F1F4F8032D1F38E34EF
:1033F000C9F4818190ED980F9A3020F08D3211F050
:103400008B3281F4DF0112969D012F5F3F4F8C912B
:1034100080538A3010F4D901F7CFFD0111968081D5
:103420008032D9F3F0931D16E0931C167F01BFEF95
:10343000EB1AFB0A10816AE270E0C7010E94E4F710
:10344000009731F0FC01319780818032E1F31182E5
:103450001D3431F1143521F1173411F1E4E7F1E3B2
:1034600084918F010F5F1F4F882321F00E940F323C
:10347000F801F6CF60911C1670911D1681EE97E051
:103480000E94284082E20E940F328AE00E940F329E
:1034900010921616109215160E9458B80C94AF2D63
:1034A000C701FC01208101962032D9F320532A3034
:1034B000A8F61093F10380E090E06AE03196DF0116
:1034C00011972C91022E000C330B20533109689F69
:1034D000A001699F500D1124C901840F951F2081FF
:1034E00020532A3058F39093F0038093EF03DF01C9
:1034F00031962C912032D9F31D34D1F48E319105BF
:1035000091F03CF48731910571F08C31910581F493
:103510000AC08537910564F08737910524F0803A19
:10352000E3E09E0729F4B093E703A093E6037CC091
:103530001092E7031092E60300911C16EE24E39428
:10354000F12CFD0131962C91222309F46DC021321A
:10355000A1F41D3491F48032910579F4F093E703DE
:10356000E093E60363E270E0CF010E94E4F7009786
:1035700009F48BC3DC011C9257C021542A31A0F5F9
:10358000AF01FA0130814F5F5F4F3032D1F340ED30
:10359000430F4A3040F043ED430F423020F03B32BE
:1035A00011F00C94DE2CAF01622F70E0DB0133E0F0
:1035B000B595A7953A95E1F7AE51BC4F27706701D5
:1035C00002C0CC0CDD1C2A95E2F796013C91232B1E
:1035D0002C934115510511F0401B01C040E0DB0167
:1035E000A853BC4F4C930AC02091E6033091E703E7
:1035F000232B21F4B093E703A093E6032081215409
:103600002A3110F4DF019DCFDF01AD014F5F5F4F25
:103610002C9120532A3010F4DA01F7CFFD011196D6
:1036200020812032D9F3EECF8091F1038D3409F45B
:103630002CC3843511F40C949C2C873409F00ECFE4
:103640008091EF039091F0038D31910509F4ABC1A6
:1036500064F48430910509F48DC01CF40297D8F00D
:1036600017CF4C9709F4CAC013CF8A35910509F4D6
:1036700005C244F48E31910509F498C18A9709F482
:1036800072C206CF8B35910509F4FBC18C359105CB
:1036900009F4FBC1FDCE80912301882309F4F8CE03
:1036A00002EAC02E01E0D02E8BE9E82E81E1F82E4F
:1036B0000CEC11E19AEEA92E93E0B92E26EA822EA7
:1036C00021E0922ED6018D916D010E9488318823D0
:1036D000D9F00E945531F5012081211104C02091BB
:1036E000EE03222331F0D8012D913D914D915C9153
:1036F00003C020E030E0A9010E9452F5F701608389
:103700007183828393830AC0F80180819181A281B1
:10371000B381F70180839183A283B383F4E0EF0E3A
:10372000F11C0C5F1F4F2FEFA21AB20A8C149D04DC
:1037300049F686E40E94B7318823C9F00E945531CA
:1037400020E030E0A9010E94D5F6181684F40E940A
:10375000553120E030E040E752E40E94D5F5609317
:103760003D0170933E0180933F01909340010E9480
:1037700019B58ECE80E50E94B731882329F00E94CA
:1037800011316B017C0103C0C12CD12C760183E582
:103790000E94B731882361F00E94553120E030E06B
:1037A0004AE754E40E94FEEE0E944EF66B017C0153
:1037B0000E94D88F80915B01811105C060E087E78E
:1037C00092E00E949AA70E94CA318091EB0B9091DF
:1037D000EC0BA091ED0BB091EE0BC80ED91EEA1EBA
:1037E000FB1E0E94C9A1DC01CB018C199D09AE0909
:1037F000BF09B7FF4DCE0E94AFB2F3CF0E94D88F62
:1038000080E00E9443530E94EF3181E08093E20BFD
:1038100088E50E948831E82E89E50E948831082FCA
:103820008AE50E948831F82EE11005C0011105C01B
:1038300011E0182705C0011102C010E001C0182FC7
:103840000E94E52F111104C0E11002C00023C1F154
:1038500080E090E0A0EAB0E48093A3119093A411DB
:10386000A093A511B093A6119C01AD016091D41154
:103870007091D5118091D6119091D7110E9498EE38
:1038800087FF0BC019821A821B821C82BE016F5FE8
:103890007F4F83EA91E10E944F2F111105C0E11083
:1038A00003C0011107C00CC080E090E00E94E98FC6
:1038B0001123B9F381E090E00E94E98F111103C058
:1038C000FF2009F45FC08091E30B882321F08091F1
:1038D000E40B81111EC060E081E992E00E949AA78A
:1038E000E4E7F1E384918F010F5F1F4F811103C063
:1038F000E0E8F2E004C00E940F32F801F3CF8491B7
:103900008F010F5F1F4F8823E9F10E940F32F801EA
:10391000F6CF0E94CA3080E090E0AAEEB2E4809335
:103920009B1190939C11A0939D11B0939E11809335
:103930009F119093A011A093A111B093A211809117
:10394000D4119091D511A091D611B091D711809337
:10395000A3119093A411A093A511B093A61119825D
:103960001A821B821C829E012F5F3F4F44ED51E162
:103970006FE971E18BE991E10E945B2E82E090E0BA
:103980000E94E98F0E94CA308091910D8093E20BD2
:103990000E94D53183E0809313010E945F6981E02A
:1039A0000E94435375CD0E94AB5372CDC090CC1191
:1039B000D090CD11E090CE11F090CF1188E50E940B
:1039C000B731811108C020E030E0A901C701B6017C
:1039D0000E9452F502C00E94553168A379A38AA3C0
:1039E0009BA3C090D011D090D111E090D211F09053
:1039F000D31189E50E94B731811108C020E030E081
:103A0000A901C701B6010E9452F502C00E945531BA
:103A10006B017C0169837A838B839C8388A099A046
:103A2000AAA0BBA02FE632E143E85AEBC501B401DE
:103A30000E94D5F687FD2CCD22E430E04BE653E41E
:103A4000C501B4010E9498EE18160CF421CD2FE6A2
:103A500032E143E85AEBC701B6010E94D5F687FD73
:103A600017CD22E430E04BE653E4C701B6010E94D3
:103A700098EE18160CF40CCD0C94EF2C1092EE036B
:103A800007CD81E08093EE0303CD85E40E94B7313A
:103A9000D82E811102C00E94D88FB2EAAB2EB1E0BD
:103AA000BB2E1CECE12E11E1F12E00E010E0CC2445
:103AB000C394D5018D915D010E94B731882371F0C7
:103AC0000E945531F70160837183828393831330A1
:103AD00029F0123011F4C092E50B01E01F5FF4E011
:103AE000EF0EF11C143029F7002319F00E94CA30A0
:103AF00037C0DD20A9F1C090D811D090D911E09045
:103B0000DA11F090DB112091860B3091870B4091F8
:103B1000880B5091890BC701B6010E94FEEE0E94EE
:103B2000DAF66093CD167093CE168093CF169093ED
:103B3000D016C701B6010E9447F62FB7F8946093DC
:103B4000E80D7093E90D8093EA0D9093EB0D2FBF74
:103B50001092BD161092BE161092BF161092C0168B
:103B60000E945F6995CC80912301882309F490CC51
:103B700089E40E94B731082F882321F00E94213167
:103B8000162F01C010E08AE40E94B731E82E882386
:103B900021F00E942131F62E01C0F12C002311F0FA
:103BA000133030F4EE2089F0A2E0CA2ECF1468F46E
:103BB000E3EBF2E084918F010F5F1F4F882309F43C
:103BC00067CC0E940F32F801F5CF0E94E52F002349
:103BD000E9F02091C2193091C3191203B001139F6B
:103BE000700D11248091BE199091BF19680F791F33
:103BF000072E000C880B990B0E949FEE60939B117F
:103C000070939C1180939D1190939E11EE20F1F082
:103C10002091C4193091C5194F2D4203B001439F23
:103C2000700D11248091C0199091C119680F791FEE
:103C3000072E000C880B990B0E949FEE60939F113A
:103C40007093A0118093A1119093A21180E50E941E
:103C5000883181110E94453186E40E94B731882362
:103C600009F485CD0E9455316B017C0120E030E0E4
:103C7000A9010E94D5F618160CF079CD20E030E0AD
:103C800040E752E4C701B60168CD8091EF039091FF
:103C9000F0038237910509F4E4C60CF0CBC08B34F5
:103CA000910509F435C40CF057C08831910509F429
:103CB00086C27CF58231910509F404C69CF497FD17
:103CC000E7CB823091050CF49BC1419709F0E0CB22
:103CD00060E087E093E00E949AA75E985E9815984E
:103CE0005E98D6CB8531910509F44FC234F44497E0
:103CF00009F0CECBEFE1F3E009C28631910509F47A
:103D000049C2479709F0C4CBE091E603F091E7037D
:103D10004AC28C31910509F4B5C25CF48A3191052F
:103D200009F459C20CF073C210920B170E943A9D0D
:103D3000AFCB8F31910509F4F5C234F44E9709F0F9
:103D4000A7CB0E94EE58A4CB8032910509F4A3C200
:103D50008A9709F49DC39CCB8836910509F4E4C386
:103D60000CF043C08235910509F4A3C534F58D34B8
:103D7000910509F4D5C30CF4CFC38135910509F041
:103D800087CB0E941C8A0E94D88F0E940FB5109288
:103D9000C9111092C8110E940B9D109279151092B2
:103DA000781568EE73E080E090E00E94CFA660E0B6
:103DB0008FED93E00E949AA76BCB8435910509F4AF
:103DC00081C50CF47AC58535910509F4AEC58C35ED
:103DD000910509F05DCB62EAC62E61E0D62E7AE746
:103DE000E72E7BE0F72E10E0BBC58D36910509F478
:103DF0002BC58CF48A36910509F42AC50CF4DEC46F
:103E00008B36910509F443C58C36910509F040CBFA
:103E1000109256013DCB8F36910509F4D3C30CF4B3
:103E2000BEC38037910509F476C48137910509F442
:103E30007AC42ECB823E910511F40C940E290CF01D
:103E400064C08B39910509F4D6C40CF58737910508
:103E500009F4D3C06CF48537910509F497C60CF0CA
:103E60009EC68337910509F013CBEBECF4E002C654
:103E70008937910509F432C70CF429C78C389105AC
:103E800009F47EC48139910509F42EC701CB8C3C1D
:103E9000910511F40C947E2714F5883C910511F4DA
:103EA0000C94EF263CF48E3B910509F0F1CA0E9478
:103EB0007C6EEECA893C910511F40C9443278B3C2F
:103EC000910509F0E5CAA2EAEA2EA1E0FA2E0EEC6D
:103ED00019E1BEEDCB2EB9E1DB2E0C946E27833DAC
:103EE000910509F486C034F48D3C910511F40C94CD
:103EF000EA27CECA8C3D910511F40C94E3288D3D40
:103F0000910511F40C94F228C3CA8A39A1E09A07EA
:103F100009F405C49CF58F32E1E09E0711F40C947E
:103F2000E22A7CF48D3221E0920711F40C94EC2902
:103F300014F00C948B2A8831914011F40C943D2993
:103F4000A7CA8039B1E09B0711F40C94E62A44F427
:103F50008336914009F09CCAE1E7F3E10C94742C9C
:103F6000813921E0920711F40C94EA2A82399140B8
:103F700009F08ECA80E00E94572F8ACA863FA1E0CE
:103F80009A0711F40C942B2CD4F4853AE1E09E07A7
:103F900011F40C94912B34F4843A914011F40C9464
:103FA000EF2A76CA843F41E0940711F40C94272C41
:103FB000853F914009F06CCA0E9460C769CA833589
:103FC000B3E09B0791F034F4873F914011F40C94D7
:103FD0002F2C5ECA803A23E0920709F497C1873EEE
:103FE000934011F40C94882C53CAE4E7F1E30C9449
:103FF000412CE4E7F1E30C945728EBEAF5E009C61D
:10400000A090E603B090E70380E50E94B7318823D3
:1040100059F00E9411316B017C0111E0672B682B74
:10402000692B31F410E004C010E0C12CD12C7601D2
:1040300083E50E94B7318823F1F00E94553120E0DA
:1040400030E04AE754E40E94FEEE0E944EF66B0117
:104050007C01111112C0672B682B692B71F4A1141C
:10406000B10459F0D5018C91882339F061E0C50184
:104070000E94B8A707C0112391F360E084EF92E09B
:104080000E949AA783E090E09093161680931516ED
:1040900081E0809377150E94D88F0E94CA31C114A5
:1040A000D104E104F104E1F08091EB0B9091EC0B71
:1040B000A091ED0BB091EE0BC80ED91EEA1EFB1EAF
:1040C0000E94C9A1DC01CB018C199D09AE09BF0971
:1040D000B7FF19C08091771581110C94462D13C03C
:1040E00080917715882319F00E94AFB2F9CF8091A3
:1040F0000B1760E0882319F085EE92E002C082ED94
:1041000092E00E949AA710927715C2C984918F01FC
:104110000F5F1F4F882321F00E940F32F801F6CF66
:104120001092B0191092AF198CE397E10E94569645
:104130008BE1ECE3F7E1DE01159601900D928A9593
:10414000E1F780913A1790913B179C838B838AEA21
:1041500091E09A83898340E050E0BE016F5F7F4F1A
:1041600086E693E00E940545CE0101960E941891D3
:10417000E0E1F3E084918F010F5F1F4F882309F482
:1041800087C90E940F32F801F5CF0E946A430E944E
:1041900020917EC910920B1710920C1779C98032AA
:1041A00009F41082319680818111F9CF40E061E0FD
:1041B0008091E6039091E7030E94104769C90E942D
:1041C0000B9D80910C17882319F081E080930B17C9
:1041D0000E94CB9C5DC980910C17882309F458C9B3
:1041E00083E50E94B731882309F452C90E94213126
:1041F000AB01BC014093A6195093A7196093A8196D
:104200007093A91986ED98E10E9442D341C980912B
:104210000C17811103C0E2E4F3E029C0E0E3F3E00E
:1042200084918F010F5F1F4F882321F00E940F326E
:10423000F801F6CF6091A6197091A7198091A8197D
:104240009091A9194AE00E9491328FE20E940F32A8
:104250006091A2197091A3198091A4199091A51948
:104260004AE00E9491328AE00E940F3211C9849183
:104270008F010F5F1F4F882309F40AC90E940F3274
:10428000F801F5CF40E060E08091E6039091E7030C
:104290000E941047FDC880910B1781110E94D88F92
:1042A000E090E603F090E70380E50E948831182F44
:1042B000882319F00E944531182F80910C1788230C
:1042C00009F4E6C8412F61E0C7010E94104783E569
:1042D0000E94B731882381F00E942131AB01BC01DB
:1042E0004093A6195093A7196093A8197093A91920
:1042F00086ED98E10E9442D380910C17882319F033
:1043000081E080930B171111C3C862CF8091E6033F
:104310009091E70321E020930A1740E060E00E94BB
:104320001047B6C80E94B4447B018C0120E831E5F7
:1043300041E050E00E94EEF4C9016DE671E00E9498
:104340006BF74B015C01C801B70120E13EE040E0A2
:1043500050E00E94EEF4CA01B90128E130E040E0EB
:1043600050E00E94EEF4762E672EC62ED72EFCE388
:104370002F2E312C412C512CC801B701A2019101E3
:104380000E94EEF4F62EE72ECA01B901A2019101B6
:104390000E94EEF4CB018E010F5F1F4F8114910438
:1043A00099F0EF92FF927F936F936F927F92BF92FB
:1043B000AF929F928F928BE793E09F938F931F937F
:1043C0000F930E9430EE13C0A114B104B1F0EF922C
:1043D000FF927F936F936F927F92BF92AF928BE623
:1043E00093E09F938F931F930F930E9430EE0FB62D
:1043F000F894DEBF0FBECDBF30C0CD2879F0EF926C
:10440000FF927F936F936F927F928FE593E09F93DC
:104410008F931F930F930E9430EEE9CF892B69F0A1
:10442000EF92FF927F936F9387E593E09F938F9333
:104430001F930F930E9430EEDACFEF92FF9283E545
:1044400093E09F938F931F930F930E9430EE0F90F2
:104450000F900F900F900F900F9060E0C8010E9496
:10446000B8A7E4E7F1E384917F012FEFE21AF20AA3
:10447000882321F00E940F32F701F5CFB8018FE8B1
:1044800093E00E9428408AE00E940F320C94481A60
:1044900083E50E94B731882311F40C94481A0E94D6
:1044A0003131E82E80E50E94B731882311F40C9455
:1044B000481A0E942131162FC62ED72ED7FE02C0D1
:1044C0000C94481AE1EAF6E08491181303C0E1E77E
:1044D000F3E10AC0319646E0E93CF407A9F70C94F1
:1044E0004A2D0E940F32F80184918F010F5F1F4FF8
:1044F0008111F7CFECE9F3E084918F010F5F1F4F3B
:10450000882311F40C94481A0E940F32F801F4CF5A
:104510000E94CB9C0C94481A0E943A9D0C94481A15
:104520000E9469C30C94481A88E690E00E94FE320B
:1045300081110C94481A8091A50D83FF02C00C9440
:10454000481A83E50E94B731882329F10E9455312A
:104550000E9447F6CB010E943FA70E94553120914F
:10456000990B30919A0B40919B0B50919C0B0E94A0
:10457000D5F6181684F481E492E09F938F938BEA2A
:1045800093E09F938F931F920E94EA440F900F90A5
:104590000F900F900F900E94D3400C94481A8EE415
:1045A0000E94B731882311F40C94481A0E942131DB
:1045B0006093091670930A1680930B1690930C164D
:1045C0000C94481A83E50E948831882359F083E5CA
:1045D0000E94B731882319F00E94313101C080E078
:1045E0008093A50DE4E7F1E384918F010F5F1F4FE6
:1045F000811103C0E5ECF3E004C00E940F32F80122
:10460000F3CF84918F010F5F1F4F882321F00E9409
:104610000F32F801F6CF8091A50D811103C0E1ECB6
:10462000F3E034C0E7EBCE2EE3E0DE2EE12CF12CFC
:1046300020E08091A50D90E00E2C02C09595879505
:104640000A94E2F780FF17C0BB24B394B20E222372
:1046500019F08CE20E940F32F60185919491FC01D1
:1046600084918F010F5F1F4F882321F00E940F322A
:10467000F801F6CF2B2D8FEFE81AF80A92E0C90E59
:10468000D11CA5E0EA16F104A1F640C084918F0187
:104690000F5F1F4F8823D1F10E940F32F801F6CF30
:1046A0008AE50E948831882311F40C94632C0E94BF
:1046B00055316B017C0120E030E040EA51EC0E9472
:1046C000D5F687FF02C00C94552C20E030E040EA7C
:1046D00051E4C701B6010E9498EE181614F40C9428
:1046E000552CC0920012D0920112E0920212F09268
:1046F00003120E94549D60910012709101128091EA
:1047000002129091031242E00E9497368AE00E94C2
:104710000F320C94481A8CEC93E00E9421940E9472
:104720002F690C94481A83E50E94B731811103C0A8
:10473000E4E7F1E30DC00E943131809351018D33E4
:1047400010F40C94481A8CE3809351010C94481A8D
:1047500084918F010F5F1F4F882321F00E940F3239
:10476000F801F6CF4091510150E060E070E085ED36
:1047700093E00E94D53F8AE00E940F320C94481AC1
:104780008091A50D83FF02C00C94481A83E50E9416
:10479000B731882311F40C94481A0E9455310E94B5
:1047A00047F66E37710514F06DE770E07093C7112E
:1047B0006093C6110E94D0890C94481A89E690E053
:1047C0000E94FE32811111C0ECEDF3E084918F0163
:1047D0000F5F1F4F882321F00E940F32F801F6CFA0
:1047E0000E941E6A8AE00E940F32109216161092E2
:1047F00015160C94AF2D83E50E94B731882311F470
:104800000C94481A0E94313180931B168D3318F096
:104810008CE380931B160E94C9A16B017C0120913F
:104820001B1630E0A8EEB3E00E9442F5C60ED71E7C
:10483000E81EF91EC0921716D0921816E0921916AB
:10484000F0921A160C94481A0E9411700C94481A8F
:1048500083E50E94B731882339F00E9421318B0112
:104860006F3F710519F010F00FEF10E080E50E9426
:10487000B731811106C01093C9110093C8110C946F
:10488000481A0E94313181110C94481AF4CF80E506
:104890000E94B731811106C01092C9111092C8113F
:1048A0000C94481A0E942131672B11F00C94481A7D
:1048B000F3CF1092ED030C94481A81E08093ED033E
:1048C0000C94481A83E50E94B7318823A1F00E9416
:1048D000553120E030E04AE754E40E94FEEE0E94A9
:1048E0004EF660935201709353018093540190935C
:1048F00055010C94481A88E50E94883181110C9466
:10490000632D89E50E94883181110C94632D8AE51D
:104910000E94883181110C94632D85E40E948831B6
:1049200081110C94632D0C94812D83E50E948831B4
:10493000882311F40C94481A0E94553120E030E08D
:104940004AE754E40E94FEEE0E944EF660931E1663
:1049500070931F1680932016909321160C94481A7A
:10496000F60181916F010E948831882309F46EC09D
:10497000133009F063C00E9455314B015C0120E007
:1049800030E040EA51E40E9498EE87FF4EC0A50156
:1049900094016091860B7091870B8091880B9091A8
:1049A000890B0E94D5F52B013C019B01AC01609164
:1049B000760B7091770B8091780B9091790B0E9418
:1049C000FEEE6093760B7093770B8093780B909349
:1049D000790BA30192016091DA197091DB19809132
:1049E000DC199091DD190E94FEEE6093DA19709344
:1049F000DB198093DC199093DD196091B20D7091F1
:104A0000B30D8091B40D9091B50D0E949DEEA30160
:104A100092010E94FEEE0E944EF66093B20D7093DA
:104A2000B30D8093B40D9093B50D8092860B909248
:104A3000870BA092880BB092890B08C00E94553159
:104A4000D7016D937D938D939C9313971F5FB4E073
:104A5000EB0EF11C143009F083CF0E9464800C949B
:104A6000481A0E94D88F0E945F690C94481A0E94CD
:104A70000F32F80184918F010F5F1F4F8111F7CF23
:104A8000EDEBF4E003C00E940F32F80184918F0136
:104A90000F5F1F4F8111F7CFE6EAF4E003C00E94D9
:104AA0000F32F80184918F010F5F1F4F8111F7CFF3
:104AB000E6E9F4E003C00E940F32F80184918F010F
:104AC0000F5F1F4F8111F7CFE5E8F4E003C00E94AC
:104AD0000F32F80184918F010F5F1F4F8111F7CFC3
:104AE000E4E7F4E003C00E940F32F80184918F01E3
:104AF0000F5F1F4F8111F7CFE5E6F4E003C00E947E
:104B00000F32F80184918F010F5F1F4F8111F7CF92
:104B1000E0E5F4E003C00E940F32F80184918F01B8
:104B20000F5F1F4F8111F7CFEAE3F4E003C00E944B
:104B30000F32F80184918F010F5F1F4F8111F7CF62
:104B4000E5E2F4E003C00E940F32F80184918F0186
:104B50000F5F1F4F8111F7CFE8E0F4E003C00E9420
:104B60000F32F80184918F010F5F1F4F8111F7CF32
:104B7000E0EFF3E084918F010F5F1F4F882311F462
:104B80000C94481A0E940F32F801F4CF60E0809133
:104B9000E6039091E7030E94B8A70C94481A85E4B5
:104BA0000E948831882381F00E944531882361F07A
:104BB000E4E7F1E384918F010F5F1F4F882321F019
:104BC0000E940F32F801F6CF81E40E9488318823D9
:104BD00081F00E944531882361F0EFE8F5E084918F
:104BE0008F010F5F1F4F882321F00E940F32F801C1
:104BF000F6CF0091E6031091E703F80181918F0150
:104C0000882309F483CD0E940F32F7CF0E940F3220
:104C1000F80184918F010F5F1F4F8111F7CFE3EAF5
:104C2000F5E084918F010F5F1F4F882321F00E94D0
:104C30000F32F801F6CF329B03C00BE212E002C044
:104C400006E212E0D8018D918D01882319F00E94AF
:104C50000F32F8CF8AE00E940F32EBE9F5E0849141
:104C60008F010F5F1F4F882321F00E940F32F80140
:104C7000F6CF339B03C00BE212E002C006E212E063
:104C8000F80181918F01882319F00E940F32F8CF2B
:104C90008AE00E940F32E3E9F5E084918F010F5F13
:104CA0001F4F882321F00E940F32F801F6CF349B6A
:104CB00003C00BE212E002C006E212E0D8018D91BF
:104CC0008D01882309F422CD0E940F32F7CF81E0B5
:104CD0008093E20B8093910D0C94481A1092E20B92
:104CE0001092910D0C94481A83E50E94B7318823E5
:104CF00019F00E94213102C060E070E08B011127A1
:104D000002301105DCF0E1E7F3E184918F010F5FE0
:104D10001F4F811103C0E5ECF5E004C00E940F3283
:104D2000F801F3CF84918F010F5F1F4F882311F497
:104D30000C94481A0E940F32F801F4CF88E40E94C4
:104D4000B7318823A9F00E9421316A3A71053CF0FD
:104D50006530B1E07B072CF064E071E002C06AEAE4
:104D600070E0F801EE0FFF1FE953F24F718360838B
:104D700086E40E94B7318823A9F00E942131F8010E
:104D8000EE0FFF1FE553F24F718360836F3F710594
:104D900019F014F06FEF70E077FF02C060E070E090
:104DA0007183608382E40E94B731882311F40C94EC
:104DB000481A0E9421316530710534F06F36710553
:104DC0002CF06EE670E002C065E070E0000F111F8D
:104DD000F801ED53F24F718360830C94481A88EC0C
:104DE00090E00E94FE3281110C94481A84E40E94E3
:104DF0008831882309F443C00E9455316B017C013E
:104E000011E020E030E0A9010E9498EE811101C07C
:104E100010E010938E0B20E030E0A901C701B6012D
:104E20000E9498EE882359F10091E80310E00E9457
:104E30005531000F111F000F111FF801E657F44FF5
:104E4000608371838283938320E030E0A9016091C5
:104E50008A0B70918B0B80918C0B90918D0B0E9423
:104E600098EE81110CC080E090E0A0EEBFE380934B
:104E70008A0B90938B0BA0938C0BB0938D0B0E949D
:104E8000F7AF0C94481A12EAE12E11E0F12E0EED64
:104E900019E18EEEC82E89E1D82EF70181917F01AC
:104EA0000E948831882351F00E9455310E944EF6AD
:104EB000D8016D937D938D939C9313970C5F1F4F37
:104EC000C016D10651F70E94C8710C94481A0C5FA5
:104ED0001F4FC016D10611F40C94481AF7018191A6
:104EE0007F010E948831882391F30E945531D801B7
:104EF0006D937D938D939C931397E9CF83E50E94E7
:104F000088318823D9F00E945531AB01BC01409310
:104F1000F6195093F7196093F8197093F9194093A3
:104F2000EE195093EF196093F0197093F11981E421
:104F300096E00E94F23F8AE00E940F3280E50E94D4
:104F40008831882399F00E945531AB01BC01409310
:104F5000F6195093F7196093F8197093F91984E2D0
:104F600096E00E94F23F8AE00E940F3282E50E94A2
:104F70008831882399F00E945531AB01BC014093E0
:104F8000F2195093F3196093F4197093F51985E0B1
:104F900096E00E94F23F8AE00E940F3284E50E9470
:104FA0008831882311F40C94481A0E945531AB01C2
:104FB000BC014093EE195093EF196093F019709370
:104FC000F11987EE95E00E94F23F8AE00E940F32CD
:104FD0000C94481A83E50E948831882351F00E947E
:104FE00055316093CA197093CB198093CC19909363
:104FF000CD1984E50E948831882351F00E945531F3
:105000006093C6197093C7198093C8199093C919F2
:1050100082E40E948831882351F00E94113160930C
:105020009D0D70939E0D80939F0D9093A00D88E52C
:105030000E948831882351F00E94553160936A0B99
:1050400070936B0B80936C0B90936D0B89E50E94B2
:105050008831882351F00E94553160936E0B709314
:105060006F0B8093700B9093710B8AE50E948831CF
:10507000882351F00E9455316093720B7093730B2B
:105080008093740B9093750B85E40E94883188237C
:1050900011F40C94481A0E9455316093760B70936A
:1050A000770B8093780B9093790B0C94481A84912A
:1050B0008F010F5F1F4F882321F00E940F32F801EC
:1050C000F6CF83E50E948831882321F00E94453184
:1050D00080933C01E1E9F6E084918F010F5F1F4F5F
:1050E000882321F00E940F32F801F6CF80913C0115
:1050F000882319F0E9E8F6E002C0EDE8F6E08491D3
:105100008F010F5F1F4F811103C0E1E8F6E004C07B
:105110000E940F32F801F3CF84918F010F5F1F4F70
:10512000882321F00E940F32F801F6CF40912A2304
:1051300050912B2360912C2370912D238FE796E0C3
:105140000E94F23F40912E2350912F2360913023F3
:10515000709131238CE796E00E94F23F4091322318
:1051600050913323609134237091352389E796E081
:105170000E94F23FE1E7F6E084918F010F5F1F4F3D
:10518000882321F00E940F32F801F6CF40E050E072
:105190006AE673E48FE696E00E94F23F40E050E05A
:1051A0006AE673E48CE696E00E94F23F40E050E04D
:1051B0006AE773E489E696E00E94F23F8AE00E9483
:1051C0000F320C94481A83E50E94B731882311F4FA
:1051D0000C94481A0E94213170935A01609359012E
:1051E0000C94481A8DED90E00E94FE3281110C94CF
:1051F000481A83E50E94B731882311F40C94481AA9
:105200000091E80310E00E942131000F111FF80106
:10521000E95AFE4F718360830C94481A80E50E941E
:105220008831882311F40C94481A0E942131F62EFB
:10523000C62ED72E83E50E94B731882321F00E9425
:1052400021318B0102C00FEF1FEFC80101960397B8
:1052500010F00C94481AD7FE02C00C94481AE1EAE8
:10526000F6E089EC96E02491F21611F40C94481AB9
:1052700031968E179F07B9F74AC480E50E9488319E
:10528000882311F40C94481A0E9421316B017C018F
:105290008B01672B19F0E1E7F3E181C083E50E9400
:1052A0008831811103C0E4E7F1E308C00E94213195
:1052B00088EF96E10E94633E0C94481A84917F0126
:1052C000BFEFEB1AFB0A882321F00E940F32F7018F
:1052D000F5CF60E070E082EE96E00E940F40809192
:1052E000FA1628E532E06901C81AD10887FDD3947F
:1052F000CC0CDD1CCC0CDD1C0D2C000CEE08FF08CA
:105300008091F91628E830E04901881A910887FD54
:105310009394880C991C880C991C092C000CAA08E1
:10532000BB088091F8168F3FB9F090E0FC01EE0FBA
:10533000FF1F8E0F9F1FFC01ED52F94E018112815C
:1053400053E0000F111F5A95E1F764E01695079599
:105350006A95E1F70E5F1F4F98012F5F3F4FC9011C
:10536000330FAA0BBB0B9C01AD01281939094A095F
:105370005B09A4EBB0E00E942FF5A7019601281964
:1053800039094A095B090E9410F5B9018FED96E0D1
:105390000E940F408AE00E940F320C94481A8491B8
:1053A0008F010F5F1F4F882321F00E940F32F801F9
:1053B000F6CFB60188ED96E00E940F40E9ECF6E0EA
:1053C00084918F010F5F1F4F882311F40C94481AAA
:1053D0000E940F32F801F4CF85E40E94B7318111A9
:1053E00010C080E50E948831882391F00E945531D9
:1053F0006093F00D7093F10D8093F20D9093F30D87
:1054000007C00E943131882361F3E1E7F3E172C004
:1054100089E40E948831882381F00E9455312CEA6A
:1054200035EC47E25EE30E94FEEE6093EC0D709374
:10543000ED0D8093EE0D9093EF0D84E40E94883182
:10544000882381F00E9455312CEA35EC47E25EE377
:105450000E94D5F56093F40D7093F50D8093F60DD1
:105460009093F70DE4E7F1E384918F010F5F1F4FF5
:10547000882321F00E940F32F801F6CF4091F00D01
:105480005091F10D6091F20D7091F30D82EF96E065
:105490000E94F23F2CEA35EC47E25EE36091EC0DAE
:1054A0007091ED0D8091EE0D9091EF0D0E94D5F56C
:1054B000AB01BC018EEE96E00E94F23F2CEA35EC87
:1054C00047E25EE36091F40D7091F50D8091F60D69
:1054D0009091F70D0E94FEEEAB01BC018AEE96E0C2
:1054E0000E94F23F8AE00E940F320C94481A0E94F8
:1054F0000F32F80184918F010F5F1F4F8111F7CF99
:105500000CE412E0F80181918F01882309F4FEC8B0
:105510000E940F32F7CF83E50E948831182F88232D
:1055200071F00E9455310E9447F670930D0160930F
:105530000C0121E0672B09F020E02093650480E551
:105540000E948831882361F020910C0130910D0177
:10555000232B11F00E944531809365040C94481A66
:1055600011110C94481AE4E7F1E384918F010F5F65
:105570001F4F882321F00E940F32F801F6CF80914F
:105580006504882319F068E272E002C065E372E006
:105590008BE097E00E94284060910C0170910D0112
:1055A0008AEF96E00E940F40E6EFF6E084918F01CB
:1055B0000F5F1F4F882311F40C94481A0E940F327A
:1055C000F801F4CF0E94A36A0C94481A0E94D88F65
:1055D0000C94481A81E00E94572F0C94481A86E5D3
:1055E0000E948831882341F08091C2199091C3199B
:1055F000892B11F00E94E0DD83E50E948831182F8D
:10560000882319F00E944531182F83E50E948831C4
:10561000882319F0812F0E9443538AE50E94883124
:10562000882321F00E9455310E94FB52F0909C0D7E
:10563000111103C0E4E7F1E319C0F110FBCF01E75A
:1056400013E1F8018491811103C00EE317E005C056
:105650000F5F1F4F0E940F32F4CFF801849188230F
:1056600049F30F5F1F4F0E940F32F7CF84918F01D4
:105670000F5F1F4F882321F00E940F32F801F6CFF1
:10568000FF2019F069E372E002C06DE372E080E38D
:1056900097E00E9428408AE00E940F32E4E7F1E39D
:1056A00084918F010F5F1F4F811103C0E3E2F7E088
:1056B00004C00E940F32F801F3CF84918F010F5F75
:1056C0001F4F882321F00E940F32F801F6CFC090BF
:1056D000980DD090990DE0909A0DF0909B0D20E0E0
:1056E00030E0A901C701B6010E94D5F618161CF0DA
:1056F000EEE1F7E00AC042E0C701B6010E9497362A
:105700008AE00E940F320C94481A84918F010F5F37
:105710001F4F882311F40C94481A0E940F32F8018D
:10572000F4CF89E40E94B731882321F00E9421310F
:10573000162F01C01FEF8AE40E94B731882321F0A1
:105740000E942131062F01C00FEF8AE50E948831A7
:10575000F82E811105C081E50E948831D82E01C044
:10576000D12C17FD06C007FD04C0F1101DC0D110DB
:105770001BC0E1E7F3E184918F010F5F1F4F81119F
:1057800003C0ECE7F7E004C00E940F32F801F3CF4A
:1057900084918F010F5F1F4F882311F40C94481AD6
:1057A0000E940F32F801F4CF133010F40330D8F018
:1057B000E1E7F3E184918F010F5F1F4F811103C077
:1057C000EDE5F7E004C00E940F32F801F3CF8491B9
:1057D0008F010F5F1F4F882311F40C94481A0E9409
:1057E0000F32F801F4CFE12E110FFF08002E000C4C
:1057F000110B0E945531D701AA0FBB1FDD2081F08C
:10580000FD01EE0DFF1DE00FF11FEE0FFF1FEE0F6C
:10581000FF1FE452FE4E208131814281538103C03B
:1058200020E030E0A901EA0EFB1E0E0D1F1D000F47
:10583000111F000F111F04521E4E0E9452F5D80175
:105840006D937D938D939C9313970C94481A0E94AB
:10585000BACB0C94481A0E944C640C94481A83E505
:105860000E948831882319F00E94453101C081E0EF
:1058700091E089270E9453650C94481A0E940F32C8
:10588000F80184918F010F5F1F4F8111F7CFE6EB75
:10589000F7E084918F010F5F1F4F882311F40C9460
:1058A00050230E940F32F801F4CFEFE9F7E0849122
:1058B0008F010F5F1F4F882311F40C9486230E94E1
:1058C0000F32F801F4CF4091001250910112609113
:1058D0000212709103128CE997E00E94F23F0C943F
:1058E00086230E940F32F80184918F010F5F1F4FB2
:1058F0008111F7CFE0ECF7E084918F010F5F1F4F2C
:10590000882311F40C94481A0E940F32F801F4CF46
:1059100081E08093230110925C0983E50E94883125
:10592000811104C00E9477B80C94481A0E94453136
:1059300081110C94481AF6CFF090EF03FF2029F163
:10594000E4E7F1E384918F010F5F1F4F882321F07B
:105950000E940F32F801F6CF84E50E940F326F2DBE
:1059600070E080E090E04AE00E94913280E20E9484
:105970000F320CE412E0F80181918F01882311F4B9
:105980000C9486230E940F32F6CF1092E903E4E7CD
:10599000F1E384918F010F5F1F4F882321F00E9454
:1059A0000F32F801F6CF60E070E08FEC97E00E94D4
:1059B0000F408AE00E940F320C94481A4091E6038F
:1059C0005091E703452B39F4AF01415051095093F1
:1059D000E7034093E60340E050E00C94D41A80E0E3
:1059E0000E9443530E94EF3183E50E94883188234F
:1059F00009F44AC00E94453121E0482FBE016F5F83
:105A00007F4FCE0180960E94BF9D6B017C019B0160
:105A1000AC010E9453F7811131C02CEA35EC47E20A
:105A200057E368A179A18AA19BA10E9452F5AB011D
:105A3000BC018BEA92E00E94F23F2CEA35EC47E28F
:105A400057E369817A818B819C810E9452F5AB0179
:105A5000BC0186EA92E00E94F23F2CEA35EC47E274
:105A600057E3C701B6010E9452F5AB01BC0181EAC0
:105A700092E00E94F23F8AE00E940F320E94D531EC
:105A80000E945F690C94481A81E0B6CF0E94AFB2C1
:105A90000C94602061E0812F0E94A8616E2D812FFF
:105AA0000E947961F12CB701812F0E941DA1F4E0C1
:105AB000CF16D10411F00C94481AF092C911E0925B
:105AC000C8110C94481A0E94D88F88E50E9488312A
:105AD000882319F05E9A1092E30B89E50E948831C1
